{
  "contractName": "Dbhash",
  "abi": [
    {
      "constant": true,
      "inputs": [
        {
          "name": "h",
          "type": "uint256"
        }
      ],
      "name": "lookup",
      "outputs": [
        {
          "name": "",
          "type": "uint256"
        }
      ],
      "payable": false,
      "stateMutability": "view",
      "type": "function"
    },
    {
      "constant": true,
      "inputs": [
        {
          "name": "",
          "type": "uint256"
        }
      ],
      "name": "hashes",
      "outputs": [
        {
          "name": "",
          "type": "uint256"
        }
      ],
      "payable": false,
      "stateMutability": "view",
      "type": "function"
    },
    {
      "constant": false,
      "inputs": [
        {
          "name": "h",
          "type": "uint256"
        }
      ],
      "name": "pushHash",
      "outputs": [],
      "payable": false,
      "stateMutability": "nonpayable",
      "type": "function"
    },
    {
      "constant": true,
      "inputs": [
        {
          "name": "",
          "type": "uint256"
        }
      ],
      "name": "timestamps",
      "outputs": [
        {
          "name": "",
          "type": "uint256"
        }
      ],
      "payable": false,
      "stateMutability": "view",
      "type": "function"
    },
    {
      "constant": true,
      "inputs": [],
      "name": "owner",
      "outputs": [
        {
          "name": "",
          "type": "address"
        }
      ],
      "payable": false,
      "stateMutability": "view",
      "type": "function"
    },
    {
      "constant": true,
      "inputs": [
        {
          "name": "ts",
          "type": "uint256"
        }
      ],
      "name": "lookupByDate",
      "outputs": [
        {
          "name": "",
          "type": "uint256"
        }
      ],
      "payable": false,
      "stateMutability": "view",
      "type": "function"
    },
    {
      "constant": false,
      "inputs": [
        {
          "name": "newOwner",
          "type": "address"
        }
      ],
      "name": "transferOwnership",
      "outputs": [],
      "payable": false,
      "stateMutability": "nonpayable",
      "type": "function"
    },
    {
      "inputs": [],
      "payable": false,
      "stateMutability": "nonpayable",
      "type": "constructor"
    },
    {
      "anonymous": false,
      "inputs": [
        {
          "indexed": true,
          "name": "_timestamp",
          "type": "uint256"
        },
        {
          "indexed": true,
          "name": "_hash",
          "type": "uint256"
        }
      ],
      "name": "HashStored",
      "type": "event"
    },
    {
      "anonymous": false,
      "inputs": [
        {
          "indexed": true,
          "name": "previousOwner",
          "type": "address"
        },
        {
          "indexed": true,
          "name": "newOwner",
          "type": "address"
        }
      ],
      "name": "OwnershipTransferred",
      "type": "event"
    }
  ],
  "bytecode": "0x6060604052341561000f57600080fd5b336000806101000a81548173ffffffffffffffffffffffffffffffffffffffff021916908373ffffffffffffffffffffffffffffffffffffffff1602179055506105568061005e6000396000f300606060405260043610610083576000357c0100000000000000000000000000000000000000000000000000000000900463ffffffff1680630a874df614610088578063501895ae146100bf57806384472ad1146100f65780638bc33af3146101195780638da5cb5b14610150578063e06e341e146101a5578063f2fde38b146101dc575b600080fd5b341561009357600080fd5b6100a96004808035906020019091905050610215565b6040518082815260200191505060405180910390f35b34156100ca57600080fd5b6100e06004808035906020019091905050610262565b6040518082815260200191505060405180910390f35b341561010157600080fd5b610117600480803590602001909190505061027a565b005b341561012457600080fd5b61013a600480803590602001909190505061036d565b6040518082815260200191505060405180910390f35b341561015b57600080fd5b610163610385565b604051808273ffffffffffffffffffffffffffffffffffffffff1673ffffffffffffffffffffffffffffffffffffffff16815260200191505060405180910390f35b34156101b057600080fd5b6101c660048080359060200190919050506103aa565b6040518082815260200191505060405180910390f35b34156101e757600080fd5b610213600480803573ffffffffffffffffffffffffffffffffffffffff169060200190919050506103d5565b005b6000808211151561022557600080fd5b6000600160008481526020019081526020016000205411151561024757600080fd5b60016000838152602001908152602001600020549050919050565b60016020528060005260406000206000915090505481565b60008060009054906101000a900473ffffffffffffffffffffffffffffffffffffffff1673ffffffffffffffffffffffffffffffffffffffff163373ffffffffffffffffffffffffffffffffffffffff161415156102d757600080fd5b6000821115156102e657600080fd5b6000600160008481526020019081526020016000205414151561030857600080fd5b42905081600260008381526020019081526020016000208190555080600160008481526020019081526020016000208190555081817f82abbf23d2ce515a633b28be0fb9c78cb43a991ee407509f81fa46a0949b8b0260405160405180910390a35050565b60026020528060005260406000206000915090505481565b6000809054906101000a900473ffffffffffffffffffffffffffffffffffffffff1681565b600080821115156103ba57600080fd5b60026000838152602001908152602001600020549050919050565b6000809054906101000a900473ffffffffffffffffffffffffffffffffffffffff1673ffffffffffffffffffffffffffffffffffffffff163373ffffffffffffffffffffffffffffffffffffffff1614151561043057600080fd5b600073ffffffffffffffffffffffffffffffffffffffff168173ffffffffffffffffffffffffffffffffffffffff161415151561046c57600080fd5b8073ffffffffffffffffffffffffffffffffffffffff166000809054906101000a900473ffffffffffffffffffffffffffffffffffffffff1673ffffffffffffffffffffffffffffffffffffffff167f8be0079c531659141344cd1fd0a4f28419497f9722a3daafe3b4186f6b6457e060405160405180910390a3806000806101000a81548173ffffffffffffffffffffffffffffffffffffffff021916908373ffffffffffffffffffffffffffffffffffffffff160217905550505600a165627a7a723058205fc4d1781922f41a59b1ad75775b47b5c57fe7c5238db890d67b396041d264c90029",
  "source": "pragma solidity ^0.4.18;\n\nimport './modifiers/Ownable.sol';\n\n\ncontract Dbhash is Ownable {\n\n    mapping(uint => uint) public hashes;\n    mapping(uint => uint) public timestamps;\n\n    event HashStored(uint indexed _timestamp, uint indexed _hash);\n\n    function Dbhash() public {}\n\n    function pushHash(uint256 h) onlyOwner public {\n        require(h>0);\n        require(hashes[h]==0);\n        \n        uint timestamp = now;\n\n        timestamps[timestamp] = h;\n        hashes[h] = timestamp;\n        HashStored(timestamp,h);\n    } \n\n    function lookup (uint256 h) public view returns(uint) {\n        require(h>0);\n        require(hashes[h]>0);\n        return hashes[h];\n    }\n\n    function lookupByDate (uint256 ts) public view returns(uint) {\n        require(ts>0);\n        return timestamps[ts];\n    }\n}",
  "sourcePath": "/Users/tasi/Work/blockchain/Yojee/dbhash/contracts/Dbhash.sol",
  "compiler": {
    "name": "solc",
    "version": "0.4.18+commit.9cf6e910.Emscripten.clang"
  },
  "schemaVersion": "1.0.1",
  "updatedAt": "2018-01-10T09:39:44.738Z"
}